:0E00000022C0FECFFDCFFCCFFBCFFACFF9CF51
:10000E00F8CFF7CFF6CFF5CFF4CFF3CFF2CFF1CFC6
:10001E00F0CFEFCFEECFEDCFECCFEBCF407924305A
:10002E00191202780010C0CFA4868B9290C78082DE
:10003E001400F6002A000000F894EE27ECBBF1E065
:10004E00FBBFEBBFE5BFF8E1F1BDE1BD8DE0A2E086
:10005E00BB27ED938A95E9F780E092E0A0E6ED9359
:10006E000197E9F7EEE3F0E085919591009761F045
:10007E00A591B59105901590BF01F00105900D92D7
:10008E000197E1F7FB01F0CFEFE5EDBFE2E0EEBF48
:10009E00C0EED0E000C0E0E4EBBBEFEFEABBE8BBA4
:1000AE00E1E8E7BBE0E6E5BBEFEFE4BBE2BBEBEF7D
:1000BE00E1BBE0E0E3BFE2BFECBFEFBDEEBDEDBDE7
:1000CE00ECBDE7BDE6BDEBBDEABDE9BDE8BDE2BDF9
:1000DE00E5BDE4BDE3BDEBB7E066EBBFE2E0E5BF37
:1000EE00E0E0E4BFE0E6EABFE0E0E9BFEAB9E0E85D
:1000FE00E8B9E0E0E0BFE6B9EDB9E6BF789488D2A2
:10010E00B6D331971CF484D286D2C1D381D2AFD369
:10011E0085D2329687D2DF01E1E1F0E08CD382D234
:10012E002F01F2017BD283D2E4E0F0E083D288D2B9
:10013E008AD294D296D2ABD397D299D26624772410
:10014E00882499248ED2E093E200F093E300E093AA
:10015E00E000F093E1008FD294D299D2AA24BB246E
:10016E00CC24DD24E3E6F0E0E093F400F093F50018
:10017E0094D2E0E0E093F200E093F300E091F2001D
:10018E00F091F300309709F041C245D28CD2AEEE19
:10019E00B0E08CD291D215970CF079D2DF98AF984F
:1001AE00E8B3E168E8BBE5B3E066E5BBA0EFB0E01D
:1001BE007DD287D212970CF070D2E091F000F091C0
:1001CE00F100309741F082D2EC0DFD1DE081EBBBCA
:1001DE00AE98C79808C07AD2EA0DFB1DE081EBBB42
:1001EE00AF9AAD98C098B2990AC076D231964FD3D5
:1001FE00319772D2349714F031D239D270D2B1997C
:10020E000DC06AD2319743D33196A3E0B0E033D319
:10021E00EE231AF423D225D23AD361D2B4990AC06E
:10022E0061D2319634D331975DD2349714F01CD20B
:10023E001ED255D2B3990DC055D2319728D33196CF
:10024E00A5E0B0E018D3EE231AF40ED20AD21FD3D3
:10025E0046D2E091F400F091F500A091EA00B09141
:10026E00EB00EA17FB070CF009C105D2E091EC0098
:10027E00F091ED00309731F4CED1E093EC00F09395
:10028E00ED00FBC0FED131D2C9F535D2BB23AAF4A5
:10029E0038D2119769F426D2309711F037D211F473
:1002AE00CFD101C0B8D1E093E800F093E90004C0CB
:1002BE0028D212970CF02ED220C023D21197D9F447
:1002CE0011D2309739F417D209F42AD230D209F468
:1002DE0034D210C007D21AD239F429D209F420D25E
:1002EE0032D209F42AD206C0FDD133D219F42BD260
:1002FE0009F416D202C005D21397A0C007D2A9F5F1
:10030E002CD294F0FED1119751F4ECD1DF0132973B
:10031E0011F02AD211F404D201C02BD204C0F1D1B3
:10032E0012970CF026D220C0ECD11197D9F4DAD165
:10033E00EDD121F4E0D109F400D213C0D3D109D20A
:10034E0039F4F5D109F4F9D1D6D109F4E9D109C0BE
:10035E00C9D115D231F4F7D109F4EFD1E8D109F4AE
:10036E00DFD102C0CED1129769C0F3D189F5F5D194
:10037E0084F009D251F4B0D1DF01329711F0F4D1EB
:10038E0011F4F7D101C0CCD103C0FDD10CF4C8D10A
:10039E001EC0F9D1D9F4A0D1B9D121F4ACD109F450
:1003AE00B9D113C099D1D5D139F4C1D109F4B2D193
:1003BE00A2D109F4DED109C08FD1E1D131F4C3D17C
:1003CE0009F4A8D1B4D109F4D4D101C0DCD136C01E
:1003DE00D6D1A1F590D1BB239AF4D5D169F47CD1B5
:1003EE00309711F093D111F416D101C029D1E093B9
:1003FE00E800F093E90003C0C6D10CF49ED11EC0F4
:10040E00C2D1D9F469D1309739F475D109F4B1D18B
:10041E008ED109F47FD110C05FD178D139F487D154
:10042E0009F4A7D190D109F475D106C055D191D157
:10043E0019F489D109F49DD101C0A5D156D131F459
:10044E00A5D1A7D1A6EEB0E0A4D117C05FD131F4EB
:10045E009DD12CD1A6EEB0E09CD10FC07AD131F453
:10046E0095D124D1A6EEB0E021D107C088D129F4D0
:10047E008DD18FD1A6EEB0E019D103C0AAEEB0E0B7
:10048E0015D18DD193D1DF01E091E400F091E5001B
:10049E00EA17FB0729F5E091E600F091E7003097A7
:1004AE0011F497981DC032D111F4969819C051D1FC
:1004BE0011F4959815C063D111F4949811C0E430DD
:1004CE00A0E0FA0711F493980BC0E530A0E0FA070C
:1004DE0011F4919805C0E630A0E0FA0709F490985F
:1004EE0065D1309751F4F8D0309709F49098FAD03E
:1004FE00309709F49798A89A49C008D191F4ECD096
:10050E00309709F49098EED0309709F49798E4D08C
:10051E00FDD009F49098E6D0F9D009F49798A99AED
:10052E0035C017D191F4D8D0F1D009F49098DAD023
:10053E00EDD009F49798D0D00CD109F49098D2D080
:10054E0008D109F49798AA9A21C019D191F4C4D070
:10055E0000D109F49098C6D0FCD009F49798BCD07D
:10056E000ED109F49098BED00AD109F49798AB9A9F
:10057E000DC0E430A0E0FA0749F4AED000D109F482
:10058E009098B0D0FCD009F49798AC9AA091E7005F
:10059E00AA231AF0B6D01797CCF101D1B2D0179783
:1005AE007CF0F60131966F01E9E0F0E0EC15FD0507
:1005BE000CF401D1F20132D03AD003D141D03AD06D
:1005CE00A091E700AA23A2F4F50131965F01E9E0BC
:1005DE00F0E0EA15FB050CF4EED0F2011FD027D0A7
:1005EE00F0D02ED028D13296E093E800F093E900B7
:1005FE00F201A3E1B0E007D12F01F201379617D037
:10060E00E3E0F0E018D131961ED069D0B7CDFFCF20
:10061E00A0E0B0E00895E1E0F0E00895A7E0B0E0DA
:10062E00F2D00895F5DF33D1F3DF21D108952F01F4
:10063E00D201089500D1E093E800F093E900089507
:10064E00E2E0F0E00895E093E400F093E500E3E0EB
:10065E00F0E0E093E600F093E7000895A2E0B0E04A
:10066E000895E0E0F0E00895A4E0B0E00895E3E03E
:10067E00F0E00DD10895E0E0E093EA00E093EB00A6
:10068E000895E0E0E093EC00E093ED000895E0E0E3
:10069E00E093EE00E093EF000895E0E0E093F000C9
:1006AE00E093F1000895FA93EA938FC0ED91FD91D6
:1006BE003196FE93EE930895A091EE00B091EF0067
:1006CE000895A091F000B091F1000895FADFEAE0EC
:1006DE0094D0EA50FF4F0895C1DFC9D00895E8ECD9
:1006EE00F0E0E1CFC1DFC3D00895E091E800F091D2
:1006FE00E90030970895A091E400B091E5001197BC
:10070E000895A091E600B091E7000895E130A0E0D1
:10071E00FA07089580DFE093E800F093E90008956A
:10072E00E3E0F0E0E093E800F093E9000895A09193
:10073E00E400B091E5001297089582DFE093E8009F
:10074E00F093E9000895A091E400B091E5001397AD
:10075E000895E230A0E0FA070895A091E400B09168
:10076E00E500119615970895FD01E330A0E0FA0714
:10077E000895E0E0E093E800E093E9000895E330A7
:10078E00A0E0FA070895BDDF15970895A4EEB0E036
:10079E000895ED91FD913197FE93EE930895E2B396
:1007AE00EB6FE2BBE5B3E07EE5BB089585DFE5E0E8
:1007BE00F0E041D008952FDFE093F200F093F300C4
:1007CE000895EBE0F0E037D032CFE991F991309611
:1007DE0039F08AEF90E00197F1F7A8953197C9F7B4
:1007EE000895F195E195F0400895FA9FF02DEB9F55
:1007FE00F00DEA9FE02DF10D08956E2F6A9FF00126
:10080E006B9FF00D089525D0F0DF0EF4EADF08950A
:10081E000024112490E1AA0FBB1F001C111C0E1AFC
:10082E001F0A18F40E0E1F1E01C0A1609A9599F7AB
:10083E00FD01D0010895E894B7FF04C0A095B095CE
:10084E0011966894F7FDCDDFE3DFFD010EF4C9DFED
:10085E000895E894F7FF02C0C4DF6894B7FF06C09E
:10086E00A095B095119600F8039400FA089511968C
:10087E0002D0FE2F1197E199FECFFF93FFB7F894A8
:10088E00AEBBBFBBE09AEDB3FFBFFF91089507D09B
:10089E001196EF93EF2F03D0EF9111970895E19BEF
:1008AE0002C0A895FCCF9FB7F894AEBBBFBBE09A31
:1008BE008DB3E81719F0EDBBE29AE19A9FBF089548
:00000001FF
