:0400000021C0FECF4E
:10000400FDCFFCCFFBCFFACFF9CFF8CFF7CFF6CFA8
:10001400F5CFF4CFF3CFF2CFF1CFF0CFEFCFEECFD8
:10002400EDCFECCFEBCF05003F065B4F666D7C0751
:100034007F6F010002002A000A00E0002C0000008B
:10004400F894EE27ECBBF1E0FBBFEBBFE5BFF8E1B2
:10005400F1BDE1BD8DE0A2E0BB27ED938A95E9F700
:1000640080E092E0A0E6ED930197E9F7E6E3F0E0A3
:1000740085919591009761F0A591B59105901590A2
:10008400BF01F00105900D920197E1F7FB01F0CF5C
:10009400EFE5EDBFE2E0EEBFC0EED0E000C0E0E08F
:1000A400EBBBEFEFEABBE0E0E8BBEFEFE7BBE0E080
:1000B400E5BBEFEFE4BBE7E0E2BBE0E0E1BBE3BFBD
:1000C400E2BFECBFEFBDEEBDEDBDECBDE7BDE6BDEF
:1000D400EBBDEABDE9BDE8BDE2BDE5BDE4BDE3BD00
:1000E400E5BFE4BFE9BFEAB9E0E8E8B9E0E0E0BFB2
:1000F400E6B9EDB9E6BF829902C0E8940EC08199D1
:1001040005C0689421F8E89422F808C0809904C0D6
:10011400689421F822F802C020FA21F821FC1AC0C0
:10012400E9E0E71599F4E41561F453944424E6E016
:10013400E51519F4E0E0E41509F002C0552444245F
:1001440001C04394772417D01BD001C0739413D0FB
:1001540024D00DC022FC03C013D01FD008C0E091EE
:10016400E000EBBBE8BBE5BB55244424772421FA2B
:1001740020F8C1CFFFCFE4E6F0E0FA93EA9314C08D
:10018400E52DF0E0E052FF4FE081EBBBE42DF0E021
:10019400E052FF4FE081E8BB0895E72DF0E0E05224
:1001A400FF4FE081E5BB0895E991F991309639F06C
:1001B4008AEF90E00197F1F7A8953197C9F7089570
:00000001FF
